{
  "address": "0x47338347B4c5d4375500337969d17F2C1739AcD1",
  "abi": [
    {
      "anonymous": false,
      "inputs": [
        {
          "indexed": true,
          "internalType": "address",
          "name": "depositor",
          "type": "address"
        },
        {
          "indexed": false,
          "internalType": "uint256",
          "name": "amount",
          "type": "uint256"
        },
        {
          "indexed": false,
          "internalType": "uint256",
          "name": "withdrawalDate",
          "type": "uint256"
        }
      ],
      "name": "FundsDeposited",
      "type": "event"
    },
    {
      "anonymous": false,
      "inputs": [
        {
          "indexed": true,
          "internalType": "address",
          "name": "beneficiary",
          "type": "address"
        },
        {
          "indexed": false,
          "internalType": "uint256",
          "name": "amount",
          "type": "uint256"
        }
      ],
      "name": "FundsWithdrawn",
      "type": "event"
    },
    {
      "inputs": [
        {
          "internalType": "address",
          "name": "",
          "type": "address"
        }
      ],
      "name": "beneficiaries",
      "outputs": [
        {
          "internalType": "address",
          "name": "beneficiaryAddress",
          "type": "address"
        },
        {
          "internalType": "uint256",
          "name": "withdrawalDate",
          "type": "uint256"
        },
        {
          "internalType": "uint256",
          "name": "amount",
          "type": "uint256"
        },
        {
          "internalType": "bool",
          "name": "withdrawn",
          "type": "bool"
        }
      ],
      "stateMutability": "view",
      "type": "function"
    },
    {
      "inputs": [
        {
          "internalType": "address",
          "name": "beneficiaryAddress",
          "type": "address"
        },
        {
          "internalType": "uint256",
          "name": "withdrawalDate",
          "type": "uint256"
        }
      ],
      "name": "depositFunds",
      "outputs": [],
      "stateMutability": "payable",
      "type": "function"
    },
    {
      "inputs": [
        {
          "internalType": "address",
          "name": "beneficiaryAddress",
          "type": "address"
        }
      ],
      "name": "getFundsAmount",
      "outputs": [
        {
          "internalType": "uint256",
          "name": "",
          "type": "uint256"
        }
      ],
      "stateMutability": "view",
      "type": "function"
    },
    {
      "inputs": [
        {
          "internalType": "address",
          "name": "beneficiaryAddress",
          "type": "address"
        }
      ],
      "name": "getFundsWithdrawalDate",
      "outputs": [
        {
          "internalType": "uint256",
          "name": "",
          "type": "uint256"
        }
      ],
      "stateMutability": "view",
      "type": "function"
    },
    {
      "inputs": [],
      "name": "getTimestamp",
      "outputs": [
        {
          "internalType": "uint256",
          "name": "",
          "type": "uint256"
        }
      ],
      "stateMutability": "view",
      "type": "function"
    },
    {
      "inputs": [],
      "name": "withdrawFunds",
      "outputs": [],
      "stateMutability": "nonpayable",
      "type": "function"
    }
  ],
  "transactionHash": "0x0e89cda5250bf005b67489c1a3fe59805ca813934b806ac085682861e89a078c",
  "args": [],
  "numDeployments": 1,
  "solcInputHash": "9f63203415a20b89d7ebd659cda614a5",
  "bytecode": "0x608060405234801561001057600080fd5b50610e0c806100206000396000f3fe6080604052600436106100555760003560e01c8063015677391461005a578063188ec3561461009a57806324600fc3146100c5578063921b004b146100dc578063b7896384146100f8578063c5b0d76014610135575b600080fd5b34801561006657600080fd5b50610081600480360381019061007c9190610829565b610172565b6040516100919493929190610899565b60405180910390f35b3480156100a657600080fd5b506100af6101cf565b6040516100bc91906108de565b60405180910390f35b3480156100d157600080fd5b506100da6101d7565b005b6100f660048036038101906100f19190610925565b610449565b005b34801561010457600080fd5b5061011f600480360381019061011a9190610829565b610730565b60405161012c91906108de565b60405180910390f35b34801561014157600080fd5b5061015c60048036038101906101579190610829565b61077b565b60405161016991906108de565b60405180910390f35b60006020528060005260406000206000915090508060000160009054906101000a900473ffffffffffffffffffffffffffffffffffffffff16908060010154908060020154908060030160009054906101000a900460ff16905084565b600042905090565b60008060003373ffffffffffffffffffffffffffffffffffffffff1673ffffffffffffffffffffffffffffffffffffffff1681526020019081526020016000209050600081600201541415610261576040517f08c379a0000000000000000000000000000000000000000000000000000000008152600401610258906109e8565b60405180910390fd5b8060030160009054906101000a900460ff16156102b3576040517f08c379a00000000000000000000000000000000000000000000000000000000081526004016102aa90610a7a565b60405180910390fd5b80600101544210156102fa576040517f08c379a00000000000000000000000000000000000000000000000000000000081526004016102f190610b0c565b60405180910390fd5b8060000160009054906101000a900473ffffffffffffffffffffffffffffffffffffffff1673ffffffffffffffffffffffffffffffffffffffff163373ffffffffffffffffffffffffffffffffffffffff161461038c576040517f08c379a000000000000000000000000000000000000000000000000000000000815260040161038390610b9e565b60405180910390fd5b60018160030160006101000a81548160ff0219169083151502179055503373ffffffffffffffffffffffffffffffffffffffff166108fc82600201549081150290604051600060405180830381858888f193505050501580156103f3573d6000803e3d6000fd5b503373ffffffffffffffffffffffffffffffffffffffff167feaff4b37086828766ad3268786972c0cd24259d4c87a80f9d3963a3c3d999b0d826002015460405161043e91906108de565b60405180910390a250565b600073ffffffffffffffffffffffffffffffffffffffff168273ffffffffffffffffffffffffffffffffffffffff1614156104b9576040517f08c379a00000000000000000000000000000000000000000000000000000000081526004016104b090610c0a565b60405180910390fd5b4281116104fb576040517f08c379a00000000000000000000000000000000000000000000000000000000081526004016104f290610c9c565b60405180910390fd5b6000341161053e576040517f08c379a000000000000000000000000000000000000000000000000000000000815260040161053590610d08565b60405180910390fd5b60008060008473ffffffffffffffffffffffffffffffffffffffff1673ffffffffffffffffffffffffffffffffffffffff1681526020019081526020016000206002015414156106835760405180608001604052808373ffffffffffffffffffffffffffffffffffffffff168152602001828152602001348152602001600015158152506000808473ffffffffffffffffffffffffffffffffffffffff1673ffffffffffffffffffffffffffffffffffffffff16815260200190815260200160002060008201518160000160006101000a81548173ffffffffffffffffffffffffffffffffffffffff021916908373ffffffffffffffffffffffffffffffffffffffff160217905550602082015181600101556040820151816002015560608201518160030160006101000a81548160ff0219169083151502179055509050506106dc565b346000808473ffffffffffffffffffffffffffffffffffffffff1673ffffffffffffffffffffffffffffffffffffffff16815260200190815260200160002060020160008282546106d49190610d57565b925050819055505b3373ffffffffffffffffffffffffffffffffffffffff167fbee4fe3675934fca827426c793623996a3079255089bda3a717019ffc5db27653483604051610724929190610dad565b60405180910390a25050565b60008060008373ffffffffffffffffffffffffffffffffffffffff1673ffffffffffffffffffffffffffffffffffffffff168152602001908152602001600020600101549050919050565b60008060008373ffffffffffffffffffffffffffffffffffffffff1673ffffffffffffffffffffffffffffffffffffffff168152602001908152602001600020600201549050919050565b600080fd5b600073ffffffffffffffffffffffffffffffffffffffff82169050919050565b60006107f6826107cb565b9050919050565b610806816107eb565b811461081157600080fd5b50565b600081359050610823816107fd565b92915050565b60006020828403121561083f5761083e6107c6565b5b600061084d84828501610814565b91505092915050565b61085f816107eb565b82525050565b6000819050919050565b61087881610865565b82525050565b60008115159050919050565b6108938161087e565b82525050565b60006080820190506108ae6000830187610856565b6108bb602083018661086f565b6108c8604083018561086f565b6108d5606083018461088a565b95945050505050565b60006020820190506108f3600083018461086f565b92915050565b61090281610865565b811461090d57600080fd5b50565b60008135905061091f816108f9565b92915050565b6000806040838503121561093c5761093b6107c6565b5b600061094a85828601610814565b925050602061095b85828601610910565b9150509250929050565b600082825260208201905092915050565b7f4e6f2066756e647320617661696c61626c6520666f722077697468647261776160008201527f6c00000000000000000000000000000000000000000000000000000000000000602082015250565b60006109d2602183610965565b91506109dd82610976565b604082019050919050565b60006020820190508181036000830152610a01816109c5565b9050919050565b7f46756e6473206861766520616c7265616479206265656e20776974686472617760008201527f6e00000000000000000000000000000000000000000000000000000000000000602082015250565b6000610a64602183610965565b9150610a6f82610a08565b604082019050919050565b60006020820190508181036000830152610a9381610a57565b9050919050565b7f5769746864726177616c206461746520686173206e6f7420796574207061737360008201527f6564000000000000000000000000000000000000000000000000000000000000602082015250565b6000610af6602283610965565b9150610b0182610a9a565b604082019050919050565b60006020820190508181036000830152610b2581610ae9565b9050919050565b7f4f6e6c79207468652062656e65666963696172792063616e207769746864726160008201527f772066756e647300000000000000000000000000000000000000000000000000602082015250565b6000610b88602783610965565b9150610b9382610b2c565b604082019050919050565b60006020820190508181036000830152610bb781610b7b565b9050919050565b7f496e76616c69642062656e656669636961727920616464726573730000000000600082015250565b6000610bf4601b83610965565b9150610bff82610bbe565b602082019050919050565b60006020820190508181036000830152610c2381610be7565b9050919050565b7f5769746864726177616c2064617465206d75737420626520696e20746865206660008201527f7574757265000000000000000000000000000000000000000000000000000000602082015250565b6000610c86602583610965565b9150610c9182610c2a565b604082019050919050565b60006020820190508181036000830152610cb581610c79565b9050919050565b7f416d6f756e74206d7573742062652067726561746572207468616e207a65726f600082015250565b6000610cf2602083610965565b9150610cfd82610cbc565b602082019050919050565b60006020820190508181036000830152610d2181610ce5565b9050919050565b7f4e487b7100000000000000000000000000000000000000000000000000000000600052601160045260246000fd5b6000610d6282610865565b9150610d6d83610865565b9250827fffffffffffffffffffffffffffffffffffffffffffffffffffffffffffffffff03821115610da257610da1610d28565b5b828201905092915050565b6000604082019050610dc2600083018561086f565b610dcf602083018461086f565b939250505056fea2646970667358221220e7ebdb4276cc5408342c11d45358435b3a634586ced9404bfdc2a1c960f97c1c64736f6c634300080b0033",
  "devdoc": {
    "author": "Jonathan Emig",
    "kind": "dev",
    "methods": {},
    "title": "TrustFund",
    "version": 1
  },
  "userdoc": {
    "kind": "user",
    "methods": {},
    "version": 1
  },
  "storageLayout": {
    "storage": [
      {
        "astId": 949,
        "contract": "contracts/trustfund/TrustFund.sol:TrustFund",
        "label": "beneficiaries",
        "offset": 0,
        "slot": "0",
        "type": "t_mapping(t_address,t_struct(Beneficiary)944_storage)"
      }
    ],
    "types": {
      "t_address": {
        "encoding": "inplace",
        "label": "address",
        "numberOfBytes": "20"
      },
      "t_bool": {
        "encoding": "inplace",
        "label": "bool",
        "numberOfBytes": "1"
      },
      "t_mapping(t_address,t_struct(Beneficiary)944_storage)": {
        "encoding": "mapping",
        "key": "t_address",
        "label": "mapping(address => struct TrustFund.Beneficiary)",
        "numberOfBytes": "32",
        "value": "t_struct(Beneficiary)944_storage"
      },
      "t_struct(Beneficiary)944_storage": {
        "encoding": "inplace",
        "label": "struct TrustFund.Beneficiary",
        "members": [
          {
            "astId": 937,
            "contract": "contracts/trustfund/TrustFund.sol:TrustFund",
            "label": "beneficiaryAddress",
            "offset": 0,
            "slot": "0",
            "type": "t_address"
          },
          {
            "astId": 939,
            "contract": "contracts/trustfund/TrustFund.sol:TrustFund",
            "label": "withdrawalDate",
            "offset": 0,
            "slot": "1",
            "type": "t_uint256"
          },
          {
            "astId": 941,
            "contract": "contracts/trustfund/TrustFund.sol:TrustFund",
            "label": "amount",
            "offset": 0,
            "slot": "2",
            "type": "t_uint256"
          },
          {
            "astId": 943,
            "contract": "contracts/trustfund/TrustFund.sol:TrustFund",
            "label": "withdrawn",
            "offset": 0,
            "slot": "3",
            "type": "t_bool"
          }
        ],
        "numberOfBytes": "128"
      },
      "t_uint256": {
        "encoding": "inplace",
        "label": "uint256",
        "numberOfBytes": "32"
      }
    }
  }
}